:020000040800F2
:1000000060060020190200082102000823020008EF
:10001000250200082702000829020008000000004D
:100020000000000000000000000000002B0200089B
:100030002D020008000000002F0200083102000815
:1000400033020008330200083302000833020008BC
:1000500033020008330200083302000833020008AC
:10006000330200083302000833020008330200089C
:10007000330200083302000833020008330200088C
:1000800033020008330200083302000800000000B9
:100090000000000000000000000000003302000823
:1000A000330200083302000833020008330200085C
:1000B000330200083302000833020008330200084C
:1000C000330200083302000833020008330200083C
:1000D0003302000833020008330200080000000069
:1000E0003302000833020008330200080000000059
:1000F00000000000000000000000000033020008C3
:100100000000000033020008330200083302000838
:1001100000000000000000000000000000000000DF
:1001200033020008330200083302000833020008DB
:100130003302000800000000000000000000000082
:100140000000000000000000000000003302000872
:1001500033020008330200083302000833020008AB
:100160003302000833020008000000000000000015
:10017000000000000000000000000000000000007F
:100180000000000033020008000000000000000032
:100190003302000800F002F800F02EF80AA090E800
:1001A000000C82448344AAF10107DA4501D100F032
:1001B00023F8AFF2090EBAE80F0013F0010F18BFD1
:1001C000FB1A43F001031847B4020000C402000008
:1001D0000023002400250026103A28BF78C1FBD850
:1001E000520728BF30C148BF0B6070471FB500F0F1
:1001F00017F91FBD10B510BD00F031F81146FFF71B
:10020000F5FF00F0C5F800F04FF803B4FFF7F2FF78
:1002100003BC00F057F80000094880470948004730
:10022000FEE7FEE7FEE7FEE7FEE7FEE7FEE7FEE7A6
:10023000FEE7FEE704480549054A064B7047000003
:100240007D03000895010008600000206006002082
:1002500060020020600200207047704770477546BA
:1002600000F02CF8AE4605006946534620F0070022
:10027000854618B020B5FFF7DDFFBDE820404FF000
:1002800000064FF000074FF000084FF0000BAC469F
:10029000ACE8C009ACE8C009ACE8C009ACE8C009EA
:1002A00021F007018D46704710B50446AFF300807A
:1002B0002046BDE81040FFF7A8BF00000048704787
:1002C0000000002001491820ABBEFEE72600020016
:1002D0007047000043F63001C4F20201086840F0A4
:1002E00002000860086840F00400086040F2004224
:1002F000C4F2020200201060116841F00101116097
:10030000116841F004011160116841F010011160A1
:10031000116841F040011160116841F48071116071
:10032000116841F480611160116841F480511160DD
:1003300040F20C41C4F20201086040F20441C4F2F0
:100340000201086040F60001C4F20201086040F6B4
:100350000C01C4F202010860086840F00200086065
:10036000086840F008000860086840F02000086055
:10037000086840F080000860704700004EF6885121
:10038000CEF20001086840F4700008607047000079
:1003900010B594B00020139040F23C43C0F6000327
:1003A0000093186859689A68D3F80CC0D3F810E025
:1003B0005C690894CDF81CE0CDF818C00592049152
:1003C00003909869D9691A6AD3F824C0D3F828E051
:1003D000DC6A0E94CDF834E0CDF830C00B920A916F
:1003E0000990186B596B9A6BDB6B129311921091F9
:1003F0000F90FFF76FFFFFE740F61000C4F2020016
:1004000000680290029800F00F000190019903A883
:1004100050F8210040F21441C4F202010860EBE7F9
:10042000F1EE100A4FF6FF71C0F2C03120EA010070
:1004300040F04070E1EE100A704700003F000000FD
:10044000060000005B0000004F0000006600000096
:100450006D0000007D000000070000007F0000002C
:100460006F000000770000007C00000039000000F1
:100470005E00000079000000710000008C0400089C
:0C0480000000002060060000D001000811
:040000050800019559
:00000001FF
