:020000040800F2
:1000000060060020190200082102000823020008EF
:10001000250200082702000829020008000000004D
:100020000000000000000000000000002B0200089B
:100030002D020008000000002F0200083102000815
:1000400033020008330200083302000833020008BC
:1000500033020008330200083302000833020008AC
:10006000330200083302000833020008330200089C
:10007000330200083302000833020008330200088C
:1000800033020008330200083302000800000000B9
:100090000000000000000000000000003302000823
:1000A000330200083302000833020008330200085C
:1000B000330200083302000833020008330200084C
:1000C000330200083302000833020008330200083C
:1000D0003302000833020008330200080000000069
:1000E0003302000833020008330200080000000059
:1000F00000000000000000000000000033020008C3
:100100000000000033020008330200083302000838
:1001100000000000000000000000000000000000DF
:1001200033020008330200083302000833020008DB
:100130003302000800000000000000000000000082
:100140000000000000000000000000003302000872
:1001500033020008330200083302000833020008AB
:100160003302000833020008000000000000000015
:10017000000000000000000000000000000000007F
:100180000000000033020008000000000000000032
:100190003302000800F002F800F02EF80AA090E800
:1001A000000C82448344AAF10107DA4501D100F032
:1001B00023F8AFF2090EBAE80F0013F0010F18BFD1
:1001C000FB1A43F00103184720040000300400002C
:1001D0000023002400250026103A28BF78C1FBD850
:1001E000520728BF30C148BF0B6070471FB500F0F1
:1001F000B5F91FBD10B510BD00F031F81146FFF77D
:10020000F5FF00F0F1F800F04FF803B4FFF7F2FF4C
:1002100003BC00F057F80000094880470948004730
:10022000FEE7FEE7FEE7FEE7FEE7FEE7FEE7FEE7A6
:10023000FEE7FEE704480549054A064B7047000003
:10024000D50300089501000860000020600600202A
:1002500060020020600200207047704770477546BA
:1002600000F02CF8AE4605006946534620F0070022
:10027000854618B020B5FFF7DDFFBDE820404FF000
:1002800000064FF000074FF000084FF0000BAC469F
:10029000ACE8C009ACE8C009ACE8C009ACE8C009EA
:1002A00021F007018D46704710B50446AFF300807A
:1002B0002046BDE81040FFF7A8BF00000048704787
:1002C0000000002001491820ABBEFEE72600020016
:1002D0007047000043F63001C4F20201086840F0A4
:1002E00001000860086840F002000860086840F0FB
:1002F000040008600022C4F20202002010601168AD
:1003000041F001011160116841F0040111601168B0
:1003100041F010011160116841F040011160116855
:1003200041F480711160116841F4806111601168BD
:1003300041F4805111600C21C4F2020108600421D3
:10034000C4F20201086040F20042C4F202021060EE
:10035000116841F001011160116841F00401116060
:10036000116841F010011160116841F04001116005
:10037000116841F480711160116841F4806111606D
:10038000116841F48051116040F20C41C4F2020145
:10039000086040F20441C4F20201086040F6000126
:1003A000C4F20201086040F60C01C4F202010860C8
:1003B000086840F002000860086840F00800086023
:1003C000086840F020000860086840F0800008607D
:1003D000704700004EF68851CEF20001086840F4E4
:1003E000700008607047000010B5A2B00020219096
:1003F000209040F27853C0F60003009318685968C3
:100400009A68D3F80CC0D3F810E05C691594CDF865
:1004100050E0CDF84CC01292119110909869D969B2
:100420001A6AD3F824C0D3F828E0DC6A1B94CDF80C
:1004300068E0CDF864C0189217911690186B596B4C
:100440009A6BDB6B1F931E921D911C9040F2B85E5D
:10045000C0F6000ECDF804E0DEF80000DEF804106F
:10046000DEF80820DEF80C30DEF810C0DEF81440AC
:100470000894CDF81CC00693059204910390DEF811
:100480001800DEF81C10DEF82020DEF82430DEF83C
:1004900028C0DEF82CE0CDF838E0CDF834C00C935D
:1004A0000B920A910990FFF715FFFFE740F6100045
:1004B000C4F20200006800F003000F900F980138AA
:1004C000400888B9FFE70F98012804D1FFE720987A
:1004D00001302090FFE70F98022804D1FFE7209811
:1004E00001382090FFE7FFE7209803A951F820008A
:1004F00046F26762C6F2666250FB02FC4FEA9C035A
:1005000003EBDC7303EB8303A0EB430310A850F869
:10051000233040F2144CC4F2020CCCF80030209B83
:1005200051F8231051FB02F2910801EBD27150F8FF
:1005300021001421C4F20201086000200290FFE7AC
:10054000029849F2DF31C0F20401884205DCFFE77E
:10055000FFE7029801300290F2E7A7E7F1EE100AF8
:100560004FF6FF71C0F2C03120EA010040F0407048
:10057000E1EE100A704700003F0000000600000096
:100580005B0000004F000000660000006D000000EE
:100590007D000000070000007F0000006F000000E9
:1005A000770000007C000000390000005E000000C1
:1005B0007900000071000000000000000100000050
:1005C0000100000002000000030000000500000020
:1005D000080000000D0000001500000022000000CF
:1005E0003700000059000000F80500080000002056
:0805F00060060000D0010008C4
:040000050800019559
:00000001FF
